:020000040800F2
:1000000098FA0220411B0008591B0008D558010826
:100010005D1B00085F1B0008611B0008000000005A
:10002000000000000000000000000000631B00084A
:10003000651B000800000000071C00087951020839
:100040006B1B00086B1B00086B1B0008F5230208E4
:100050006B1B00086B1B00086B1B00086B1B000868
:100060006B1B00086B1B00086B1B00086B1B000858
:100070006B1B00086B1B00086B1B00086B1B000848
:100080006B1B00086B1B00086B1B00086B1B000838
:100090006B1B00086B1B00086B1B00086B1B000828
:1000A0006B1B0008295302086B1B00087D520208D5
:1000B0006B1B000869540208955402086B1B00086A
:1000C0006B1B00086B1B00086B1B00086B1B0008F8
:1000D0006B1B0008D56502086B1B0008356602081B
:1000E0006B1B0008B91F02086B1B00086B1B000884
:1000F000955602086B1B00086B1B00086B1B000861
:100100006B1B0008C9310208C95402086B1B0008A8
:100110006B1B00086B1B000859550208D1550208DB
:100120006B1B00085D1601086B1B00088D1601088B
:100130006B1B00082D2001086B1B00086B1B0008BF
:100140006B1B00086B1B00086B1B00089112020858
:10015000BD1601086B1B00086B1B00086B1B000819
:100160006B1B00086B1B00086B1B00086B1B000857
:100170006B1B00086B1B00088114010800000000C5
:100180006B1B00086B1B00086B1B00086B1B000837
:100190006B1B00086B1B00086B1B00086B1B000827
:1001A0006B1B00086B1B00086B1B000800F002F8BB
:1001B00000F0B2F80AA090E8000C82448344AAF14F
:1001C0000107DA4501D100F0A7F8AFF2090EBAE84D
:1001D0000F0013F0010F18BFFB1A43F0010318477B
:1001E00028410B0048410B000A444FF0000C10F866
:1001F000013B13F0070408BF10F8014B1D1108BFA5
:1002000010F8015B641E05D010F8016B641E01F844
:10021000016BF9D113F0080F1EBF10F8014BAD1C94
:100220000C1B09D16D1E58BF01F801CBFAD505E0B2
:1002300014F8016B01F8016B6D1EF9D59142D6D30C
:10024000704700000023002400250026103A28BF34
:1002500078C1FBD8520728BF30C148BF0B60704738
:100260006E2909F0B385702909F0D786662909F04F
:10027000EE8C652909F0EB8C672909F0E88C61297F
:1002800009F0E78C03681B0A28BF41F08001692947
:1002900009F06085642909F05D85752909F05A85A2
:1002A0006F2909F06586782909F0A386E92909F004
:1002B000FF85E42909F0FC85F52909F0F985EF2986
:1002C00009F06286F82909F0A2860368DB0928BFD5
:1002D00041F0800163290AF0928773290AF0978719
:1002E000E3290AF0B587F3290AF0BA87002070479E
:1002F0001FB589F056FC0AF09DFC04000020002187
:1003000088F06EFB401C60600020002188F07EFBBE
:10031000E0601FBD10B510BD0BF0DCFC1146FFF70F
:10032000E7FF5CF0F5F90BF04DFF03B4FFF7F2FFC8
:1003300003BC2EF074FE000080F3088870470000B4
:100340002DE9FE5F5FEA000A0D46A87F10F0800FDE
:1003500005D01AF0030018BF0438BDE8FE9FB5F8B9
:100360000C90A879C0F3001360F3451060F384008B
:1003700063F3C30060F342004FEA00662F69D5F8CB
:1003800014C0D5F8188028F007084FEA992B57F8C1
:100390002BB01BF8094009F10109C0F2000900F077
:1003A00019F8BAF1040AEED5A5F80C9096FAA6F061
:1003B00060F31D6660F3DA5660F3195660F39856E1
:1003C0004FEA166000F0D700A871C5F818805046B3
:1003D000BDE8FE9FDFE814F0610AE4073008690712
:1003E000FF04D704B7073B0594084107CD077B07F7
:1003F000FF04D704B7073005D905E40730086907BB
:10040000FF04D704B7072305EC054107CD077B0799
:10041000FF04D704B7071605E005E4075708690786
:10042000FF04D704B707EE09E305410708087B0777
:10043000FF04D704B707D009E605E2072A086707D3
:10044000F004C8043D089C09E9053F07C707790780
:10045000FF04D704B7079309880788078807880728
:1004600088078807A90788078807880788078807F3
:1004700088078807A90788078807880788078807E3
:1004800088078807A90788078807880788078807D3
:1004900088078807A90788078807880788078807C3
:1004A00088078807A90788078807880788078807B3
:1004B00088078807A90788071F081F081F081F0843
:1004C0001F081F08570A1F0888078807880788071A
:1004D00088078807A90788077503750375037503DF
:1004E0007503750371037503A203A203A203A2039C
:1004F000A203A2039E03A203D403D403D403D40310
:10050000D403D403D003D403030403040304030477
:1005100003040304FF0303043704370437043704D8
:10052000370437043304370461046104610461044F
:10053000610461045D0461048904890489048904F7
:100540008904890485048904B104B104B104B104A7
:10055000B104B104AD04B1045F06CF06010619066B
:100560003C0692065E0335066206AF0604060001ED
:100570003F0654068B0335066506CF0607068C0B2F
:1005800042069206BD0335066806B4080A06080B43
:1005900045064101EC0335066B06CF060D066C08D7
:1005A00048069206200435066E06CC051006C108E2
:1005B0004B067D024A0435067106BC0613064D0A39
:1005C0004E067E0672043506740616081606520A92
:1005D000510641019A04350671464FEA992B57F8A6
:1005E0002BB01BF8094009F10109C0F200094FEADC
:1005F000D403082BA4BFDB0843F0080304F0070072
:10060000062804D000F014F8BAF1040A084700F0F4
:10061000DEF9092B07D000F00BF8A87901F03EF9BC
:10062000BAF1040A084700F003F8BAF1050A0847CE
:1006300003F00F03DFE813F05304490441043404CA
:1006400026042B0416041D0410008104740467049E
:10065000100010001000100070474FEA541464F3AB
:1006600042084FEA992B57F82BB01BF8094009F1C3
:100670000109C0F20009AAF1040ADFE814F00E092A
:100680009106DD061606AC0384036406E803410701
:10069000EE057A062806AC0384036406DD038604AF
:1006A0009106DD061606AC0384036406D0039904A4
:1006B000EE057A062806AC0384036406C3038D04A2
:1006C0008A0602070F06A6037E035E069B089004B7
:1006D000E705B5062106A6037E035E067D089304A2
:1006E0008F06D70614069D037503E806490896048D
:1006F000EC0574062606AC03840364064008350640
:100700003506350635063C063C06560635063506E2
:100710003506350635063C063C06560635063506D2
:100720003506350635063C063C06560635063506C2
:100730003506350635063C063C06560635064C069B
:100740004C064C064C064606460656064C064C061B
:100750004C064C064C064606460656064C06CC068B
:10076000CC06CC06CC06CC06CC060409CC06350655
:100770003506350635063C063C0656063506220289
:10078000220222022202180218021E0222024F0234
:100790004F024F024F02450245024B024F028102B7
:1007A000810281028102770277027D028102B0021A
:1007B000B002B002B002A602A602AC02B002E4028D
:1007C000E402E402E402DA02DA02E002E4020E03E6
:1007D0000E030E030E03040304030A030E03360381
:1007E0003603360336032C032C03320336035E0331
:1007F0005E035E035E03540354035A035E030C0559
:100800007C05AE04C604E9043F050B02E2040F05B3
:100810005C05B1040001EC0401053802E204120594
:100820007C05B404390AEF043F056A02E2041505A9
:100830006107B704B509F20429019902E204180519
:100840006405BA041907F5042605CD02E2041B0568
:100850007904BD046E07F8042A01F702E2041E05BC
:100860006905C004FA08FB042B051F03E2042105F7
:10087000C306C304FF08FE0429014703E2047146CE
:1008800000F0A5F84FEA992B57F82BB01BF809B0E8
:1008900009F10109C0F200094FEADB03082BA4BFEC
:1008A000DB0843F008030BF0F80444F0060463F39C
:1008B000071BFFF7BDFE4FEA1B13092B08BF0847B4
:1008C000A8790BF0070B05F80B0000F0E7FF0847CD
:1008D000C3E64FEA992B57F82BB01BF8094009F1F2
:1008E0000109C0F20009AAF1040A4FEA5413DFE833
:1008F00003F004040A0A04070404AAF1040A704776
:10090000A4F1600301E0A4F14003DFE813F07C08E8
:10091000FD087C04B7053C07C107A9078F077C08C1
:10092000FD08580468053C07C107A907A6077C080D
:10093000FD087C04B7053C07C107A90782077C08AE
:10094000FD08580468053C07C107A90792077C0801
:10095000FD087C04B7053C07C107A90706077C080A
:10096000FD08580468053C07C107A90706077C086D
:10097000C6077904B4053C07C107A907C6077C0868
:10098000FD08550465053C07C107A907C6072B06E6
:10099000AC065408D408C607C607C607C6073506FE
:1009A000AC065408D408C607C607C607C6075706CC
:1009B000BE063508B108C607C607C607C6077C06C7
:1009C000BE063508B108C607C607C607C607AAF19E
:1009D000030A18F0060B0BF1040B35F80B2052BA82
:1009E0000CD0AAF1080A4FEA992B57F82BB01BF943
:1009F00009B05A4409F10109C0F200094FEA922BEB
:100A000057F82BB01BF802B085F806B07047AAF172
:100A1000030A18F0060B0BF1040B35F80B2052BA41
:100A200008BF7047AAF1080A4FEA992B57F82BB074
:100A30001BF909B05A4409F10109C0F200097047D5
:100A40004FEA992B57F82BB01BF8092009F101093F
:100A5000C0F200094FEA992B57F82BB01BF809B0E8
:100A600009F10109C0F2000942EA0B2270474FEA7E
:100A7000922B57F82BB01BF8020002F10102C0F2D2
:100A800000024FEA922B57F82BB01BF802B040EA55
:100A90000B2070474FEA992B57F82BB01BF80940F1
:100AA00009F10109C0F20009AAF1030A0CE008F0FB
:100AB000060004F00504044405E07146FFF787FFD3
:100AC0008E4604F007042C5DE8794FEA006313EBCF
:100AD0000463EFF300864FEA1363EB7180EA0400CE
:100AE00080EA030000F0100060F3DB5670474FEA25
:100AF000992B57F82BB01BF8094009F10109C0F2F6
:100B00000009AAF1030A0CE008F0060004F005044D
:100B1000044405E07146FFF75AFF8E4604F00704CF
:100B20002C5DE8794FF0FF3360F31F63F60053EB61
:100B30000463EFF300861B0EEB7108BF46F080469E
:100B400080EA040080EA030000F0100060F3DB5646
:100B500070474FEA992B57F82BB01BF8094009F161
:100B60000109C0F20009AAF1030A0CE008F006002E
:100B700004F00504044405E07146FFF728FF8E46A3
:100B800004F007042C5DE8794FEA0063B3EB0463DB
:100B9000EFF300864FEA1363EB7180EA040080EA0A
:100BA000030000F0100060F3DB5686F0105670472B
:100BB0004FEA992B57F82BB01BF8094009F10109AE
:100BC000C0F20009AAF1030A0CE008F0060004F0E4
:100BD0000504044405E07146FFF7F9FE8E4604F073
:100BE00007042C5DE8794FEA006386F00056F600B2
:100BF00073EB0463EFF300861B0EEB7108BF46F046
:100C0000804680EA040080EA030000F0100060F3F0
:100C1000DB5686F0105670474FEA992B57F82BB0E9
:100C20001BF8094009F10109C0F20009AAF1030A01
:100C30000CE008F0060004F00504044405E07146E9
:100C4000FFF7C5FE8E4604F007042C5DE87900EA44
:100C50000400E8710306EFF300865CF820304FF0E3
:100C6000100040EA431060F3DD5670474FEA992BBD
:100C700057F82BB01BF8094009F10109C0F200092F
:100C8000AAF1030A0CE008F0060004F0050404448D
:100C900005E07146FFF79BFE8E4604F007042C5DCD
:100CA000E87980EA0400E8710306EFF300865CF857
:100CB00020304FEA431060F3DD5670474FEA992B1E
:100CC00057F82BB01BF8094009F10109C0F20009DF
:100CD000AAF1030A0CE008F0060004F0050404443D
:100CE00005E07146FFF773FE8E4604F007042C5DA5
:100CF000E87940EA0400E8710306EFF300865CF847
:100D000020304FEA431060F3DD5670474FEA992BCD
:100D100057F82BB01BF8094009F10109C0F200098E
:100D2000AAF1030A0CE008F0060004F005040444EC
:100D300005E07146FFF74BFE8E4604F007042C5D7C
:100D4000E8794FEA0063B3EB0463EFF300864FEA00
:100D5000136380EA040080EA030000F0100060F3EF
:100D6000DB5686F0105670477146FFF730FE00F0F4
:100D70000AF8A87900F092FD0847C4F3C20408F00D
:100D80000600044401E0C4F3C2042B5D4FEA036093
:100D9000B0F180704FEA106028554FEA5674EFF3B7
:100DA000008664F35D761B0708BF43F0080343F039
:100DB000040363F31B6670477146FFF708FE00F0FB
:100DC0000AF8A87900F06AFD0847C4F3C20408F0E5
:100DD0000600044401E0C4F3C204285D4FEA006049
:100DE00010F180704FEA10632B554FEA5674EFF301
:100DF000008664F35D76000108BF40F0080060F3F0
:100E00001B667047E879C6F3407360F35D764FEA7E
:100E1000500063F3C71006F07046E8717047E87938
:100E2000C6F3407343EA40034FEAD01060F35D76A7
:100E300006F07046EB717047E87960F35D7660F319
:100E400008204FEA500006F07046E8717047E879D4
:100E500040EA00204FEAD01060F35D7606F070465D
:100E6000E871704704F00704285D400640F0807088
:100E70003DE004F00704285D60F3492020F0010004
:100E8000C00534E004F00704285D40062FE004F0BC
:100E90000704285760F3492020F00100C00526E030
:100EA00004F00704285D60F34920C6F3407363F340
:100EB000082020F00100C00519E004F00704285DB7
:100EC000C6F3407343EA400010E004F00704285DD5
:100ED00040EA002060F349204FEA500006E004F0A9
:100EE0000704285D40EA00204FEAD0100006EFF327
:100EF00000864FEA106028555CF820304FEA031353
:100F000063F31C6670474FF00103C4F3C20003FA99
:100F100000F304F00704285D40EA030028557047F9
:100F20004FF00103C4F3C20003FA00F304F0070416
:100F3000285D20EA0300285570474FF00103C4F3F1
:100F4000C20003FA00F304F00704285D00EA03007E
:100F500003064FEA5674EFF3008664F35D765CF89F
:100F600020304FEA031343F0080363F31C66704715
:100F700008F0060404F1040435F80490A5F80C9078
:100F800099FA99F9BAF1040A7047AAF1010A287886
:100F9000013828700CD119E0B30009D316E0B30072
:100FA00006D213E0F30003D310E0F30000D20DE00B
:100FB0004FEA992B57F82BB01BF9090009F10109E9
:100FC0008144C0F20009BAF1080A704709F1010929
:100FD000C0F20009BAF1030A7047B30015D329E043
:100FE000B30012D226E0F3000FD323E0F3000CD2BB
:100FF00020E0330109D31DE0330106D21AE073006B
:1010000003D317E0730000D214E04FEA992B57F88E
:101010002BB01BF8090009F10109C0F200094FEAE1
:10102000992B57F82BB01BF8099040EA0929BAF11F
:10103000060A704709F10209C0F20009BAF1060A6E
:10104000704799FA99F304F038090AF1040A59E053
:10105000B30015D3EEE7B30012D2EBE7F3000FD3E2
:10106000E8E7F3000CD2E5E7330109D3E2E7330107
:1010700006D2DFE7730003D3DCE7730000D2D9E7C1
:10108000714609F10203C0F200035BBAFFF7BDFF2E
:101090000AF1040A37E0B3004BD313E0B30048D29F
:1010A00010E0F30045D30DE0F30042D20AE0330133
:1010B0003FD307E033013CD204E0730039D301E0B1
:1010C000730036D2BAF1010A7047C8F3410404F143
:1010D000020415E096FAA6F0334660F31D6360F350
:1010E000DA5360F3195360F398534FEA136000F03A
:1010F000D700A871EB7943EA002303E0C4F301149D
:1011000035F814307146EA8952BAA2F10102C0F2F0
:101110000002184600F0C2FBA2F10102C0F2000278
:101120004FEA132000F0BAFB52BAEA81BAF1030A7F
:101130000847AAF1010A71464FF0060400F01DF8B5
:1011400093FA93F90847C8F3410404F1020414E048
:10115000714600F010F8E88840BAE880C0F3001348
:1011600060F3451060F3840063F3C30060F3420052
:101170004FEA00660847C4F30114EA8952BA4FEAFD
:10118000922B57F82BB01BF8020002F10102C0F2BB
:1011900000024FEA922B57F82BB01BF8023002F1F5
:1011A0000102C0F2000243EA002325F8143052BACB
:1011B000EA81BAF1060A70474FF0070401E0C4F370
:1011C000011435F81440CFF6FF7424BAA88800BA89
:1011D000F60050EB040380EA040080EA03004FEAC3
:1011E00010704FEA4000EFF3008660F39B661BBA75
:1011F000AB801B0408BF46F08046BAF1070A70476F
:101200004FF0070401E0C4F3011435F8144024BA88
:10121000A88800BA86F00056F60070EB040380EA56
:10122000040080EA03004FEA1070EFF3008660F3D9
:10123000DB661BBAAB801B0408BF46F0804646F055
:10124000806686F00056BAF1070A704708F0060477
:1012500004F1040403E04FF070044FEAD40404F0F6
:101260001E042C5B64BA08F0060B0BF1040B35F876
:101270000B0040BA00EB040380EA040080EA03009C
:1012800000F4805060F3DB364FEA134060F35D7684
:101290005BBA25F80B30BAF1070A704708F006046C
:1012A00004F1040403E04FF070044FEAD404285B17
:1012B00040BA00F1010040BA2853BAF1020A70475F
:1012C00008F0060404F1040405E04FF070044FEA4E
:1012D000D40404F01E04285B40BAA0F1010040BA17
:1012E0002853BAF1020A704704F00703E85CC4F31C
:1012F000C2042855704708F0060004F005030344B3
:10130000E85CC4F3C2042855704708F0060004F0F6
:101310000503034401E004F00703E85C08F006035A
:10132000C4F3C2042344E85470477146FFF74FFBEF
:10133000C4F3C20405F804B0084708F00603C4F378
:10134000C2041C4401E0C4F3C2044FEA992B57F8CD
:101350002BB01BF8090009F10109C0F2000928555A
:10136000BAF1030A70477146FFF76AFBAAF1060A51
:1013700005E071464FEA141435F8142052BA4FEACA
:10138000922B57F82BB01BF80200E871BAF1030A50
:10139000084708F0060404F1040403E04FF0700469
:1013A0004FEAD4044FEA992B57F82BB01BF80900E9
:1013B00009F10109C0F200094FEA992B57F82BB047
:1013C0001BF8093009F10109C0F2000943EA0020C5
:1013D0002853AAF1060A70474FF00E0408E0C4F340
:1013E00001144FEA440403E008F0060404F1040485
:1013F0007146FFF725FBFFF73AFB40BA2853AAF1E5
:101400000C0A084708F0060404F10404285BE8818C
:10141000AAF1020A7047714604F00704285DFFF73D
:10142000F6FA00F03BFA0AF1040A08477146FFF7A2
:1014300007FBAAF1060A04E071464FEAD4042A5BCE
:1014400052BAE87900F02AFA0AF1010A08470AF1CB
:10145000030A7146FFF7DBFA4FEA992B57F82BB0D6
:101460001BF8090009F10109C0F2000900F016FAA1
:101470000AF1010A08474FF00E0408E0C4F3C20461
:1014800005E0AAF1040A08F0060404F10404714618
:10149000FFF7D6FA2B5B58BA00F000FA02F101020E
:1014A000C0F20002184600F0F9F9BAF1040A084740
:1014B000714608F0060404F104042B5BEA8952BA71
:1014C0004FEA922B57F82BB01BF802B04FEA1320CB
:1014D0006BF30F2300F0E2F902F10102C0F2000207
:1014E0004FEA922B57F82BB01BF802B003F0FF0025
:1014F0006BF3070300F0D2F92B53AAF1070A084750
:1015000096FAA6F060F31D6660F3DA5660F319569A
:1015100060F398564FEA166000F0D700A871EB8888
:10152000E88CEB84E880C0F3001360F3451060F3AF
:10153000840063F3C30060F342004FEA0066704723
:101540002B88288C2B8428806B88688C6B8468801F
:10155000AB88A88CAB84A88070476B88A888AB80C8
:10156000688070477146AC8864BA04F101036A88E8
:1015700052BA02F1010008E07146AC8864BAA4F1E5
:1015800001036A8852BAA2F101005BBAAB8040BA8B
:1015900068804FEA942B57F82BB01BF8040000F03A
:1015A0007DF92A8852BA013A52BA2A8006F060467A
:1015B00018BF46F08056AAF1040A08477146AC8865
:1015C00064BA6A8852BA2B885BBA4FEA942B57F8F0
:1015D0002BB01BF8040000F061F904F10104C0F223
:1015E000000402F10102C0F20002013B30D0BAF166
:1015F000090AEAD506F0604646F08066A9F10209BC
:10160000C0F2000928E07146AC8864BA6A8852BA10
:101610002B885BBA4FEA942B57F82BB01BF80400C9
:1016200000F03CF9A4F10104C0F20004A2F10102AF
:10163000C0F20002013B0BD0BAF1090AEAD5A9F1C8
:101640000209C0F2000906F0604646F0806603E039
:10165000AAF1040A06F060465BBA2B8052BA6A808F
:1016600064BAAC800847C4F38104C4F10104E8798A
:10167000AA8852BA2B885BBA4FEA922B57F82BB044
:101680001BF802B02244013B1BE0C4F38104C4F107
:101690000104E879AA8852BA2B885BBA4FEA922BE8
:1016A00057F82BB01BF802B02244013B09D0834508
:1016B00007D0BAF10D0AF1D5A9F10209C0F200096B
:1016C00001E0AAF1080A5BBA2B8052BAAA80C6F3DD
:1016D0004076A0EB0B0480EA0B0080EA040000F0E7
:1016E000100040F0080040EA86102406EFF3008660
:1016F00060F3DD56002B18BF46F080567047C6F3E6
:10170000407363F3DB6606F0784686F00056704758
:1017100006F0704646F0005670477146AA8852BAE5
:101720004FEA922B57F82BB01BF802B0EB7914F06C
:10173000080406D14FEA1B1063F307106BF3030391
:1017400006E018466BF307104FEA1B1B6BF303030D
:10175000EB7100F0A3F806F000505FEA036BEFF3C3
:10176000008606F0404646EA00065CF8230060F377
:101770001C76AAF1060A0847E87980F0FF00E871B4
:1017800046F0406670474FF00003E879B3EB006322
:10179000EFF300864FEA1363EB7183EA000303F073
:1017A0001003802808BF43F0200363F3DC5686F063
:1017B00010567047E8794FF0000316F0006F18BF1D
:1017C00043F0060300F00F04092CC8BF43F00603E2
:1017D00016F0005F18BF43F060039928C8BF43F0BC
:1017E000600316F0806F0EBFC418C41A43F00803DC
:1017F00080EA040000F0100043EA0003EC712406C4
:10180000EFF3008663F3DD565CF8230060F31C768B
:101810007047287FE87106F000530006EFF300865A
:10182000A87F60F31C7363F31D067047E87928777F
:101830007047687FEFF3008300EB536080EA0A0093
:101840006877E87106F000530006EFF30086A87F82
:1018500060F31C7363F31D067047E879687770477F
:10186000A87F04F0180420F0180040EA0400A877CC
:101870007047A87F20F00300A8777047A87F40F04A
:101880000300A8777047A87F40F08000A8777047D2
:10189000A87F60F34100A8774DE47047AAF1040ADD
:1018A000B2EB184F38BF70474FEA922B57F82BB066
:1018B0000BF8020042F38D0BBBF1FF3F18BF7047DE
:1018C00012F0030BDFE80BF03C02142895F81FB070
:1018D00000EA0B00D5F82CB00BEB80304FF0010B79
:1018E00047F82B000BF1010BBBF1100FF8D170473B
:1018F00095F81FB000EA0B00D5F82CB00BEB803048
:10190000A0F580404FF0100B47F82B000BF1010BB6
:10191000BBF1200FF8D1704785F82B0095F82AB05D
:101920001BF0080F14D1CCF2000895F81FB000EAA4
:101930000B00D5F82CB00BEB803BABF5004B12E065
:1019400085F82A0010F0080F08BF95F82B00EAD0A0
:10195000C8F20008D5F830B0ABF5804B10F0040F9A
:1019600008BFABF5804B4FF0200047F820B000F1E6
:1019700001003028F9D170477146C4F38104C4F1E5
:101980000104AA8852BA2B7800F051F8FFF786FFBD
:101990002244013B07D0BAF10D0AF5D5A9F102099D
:1019A000C0F2000901E0AAF1080A2B7052BAAA801D
:1019B00046F088460847714600F039F8AA8852BABE
:1019C000FFF76CFFC4F38104C4F10104224452BA4E
:1019D000AA8006F03C462B78013B2B7008BF46F0EE
:1019E000804646F08066084771464FEA992B57F8C3
:1019F0002BB01BF809B009F10109C0F2000900F091
:101A000018F8E8710847714600F011F8C4F3C204F1
:101A1000062C18BF285506F000530006EFF3008689
:101A200063F31D065CF8230060F31C76084795F805
:101A300001B01BF0800F0AD01BF0400F11D04FF007
:101A4000FF001BF0010B08BF95F8280070474FF00E
:101A5000FF000BF0410BBBF1400F08BF95F82900C8
:101A600070472DE9FE5F584629F07EFBBDE8FE9FDA
:101A70007146C4F38104C4F10104AA8852BA2B78D8
:101A80004FEA922B57F82BB01BF8020000F03FF8FA
:101A90002244013B07D0BAF10D0AF1D5A9F10209A0
:101AA000C0F2000901E0AAF1080A2B7052BAAA801C
:101AB00046F0884608477146AA8852BA4FEA922BE8
:101AC00057F82BB01BF8020000F021F8C4F3810492
:101AD000C4F10104224452BAAA8006F03C462B7895
:101AE000013B2B7008BF46F0804646F080660847F1
:101AF0004FEA992B57F82BB01BF809B009F10109EF
:101B0000C0F20009E87904E0C4F3C204285D95F846
:101B100001B00BF0CF0B1BF0800F06D02DE9FE5F5C
:101B2000594629F03DFBBDE8FE9F1BF0400F08BF62
:101B300070472DE9FE5F22F063FCBDE8FE9F0000C8
:101B40000D48016841F4700101600C48016821F002
:101B5000404101600A480047FEE7FEE7FEE7FEE776
:101B6000FEE7FEE7FEE7FEE7FEE7FEE7054806497B
:101B7000044A064B7047000088ED00E034EF00E0B7
:101B8000AD01000898EA022098FA022098EA0220A3
:101B9000EFF3098141B1F1EE101A40F8041D20ED78
:101BA000200A29490A6810607047B0EC200A02C870
:101BB000E1EE101A25490A6810607047EFF31080B3
:101BC00072B6704780F31088704721484FF6FF7156
:101BD0000170002080F309881E48016881F308889D
:101BE0001D48012101701D484FF08051016062B60F
:101BF000FEE71A484FF080510160704717484FF0D8
:101C000080510160704772B6EFF3098028B1203827
:101C100080E8F00F0C490968086000B5104880475B
:101C20005DF804EB0F4810490A780270064807492E
:101C30000A680260106890E8F00F203080F309888D
:101C40004EF0F40E62B67047340500203C050020CB
:101C500022ED00E0580500201B05002004ED00E007
:101C60006D0C020818050020190500202DE9F04F21
:101C700082B001904FF000744FF000784FF00005F3
:101C80004FF0000952F804CB52F804EB0868CB6D12
:101C9000C0FB0C45D1F88000CEF1000EC3FB0E4511
:101CA000D1F8DC30C0FB0C89C3FB0E8952F804CBA1
:101CB00052F804EB48688B6DC0FB0C45D1F88400EA
:101CC000CEF1000EC3FB0E45D1F8D830C0FB0C8915
:101CD000C3FB0E8952F804CB52F804EB88684B6DB5
:101CE000C0FB0C45D1F88800CEF1000EC3FB0E45B9
:101CF000D1F8D430C0FB0C89C3FB0E8952F804CB59
:101D000052F804EBC8680B6DC0FB0C45D1F88C0091
:101D1000CEF1000EC3FB0E45D1F8D030C0FB0C89CC
:101D2000C3FB0E8952F804CB52F804EB0869CB6C64
:101D3000C0FB0C45D1F89000CEF1000EC3FB0E4560
:101D4000D1F8CC30C0FB0C89C3FB0E8952F804CB10
:101D500052F804EB48698B6CC0FB0C45D1F8940039
:101D6000CEF1000EC3FB0E45D1F8C830C0FB0C8984
:101D7000C3FB0E8952F804CB52F804EB88694B6C14
:101D8000C0FB0C45D1F89800CEF1000EC3FB0E4508
:101D9000D1F8C430C0FB0C89C3FB0E8952F804CBC8
:101DA00052F804EBC8690B6CC0FB0C45D1F89C00E1
:101DB000CEF1000EC3FB0E45D1F8C030C0FB0C893C
:101DC000C3FB0E8901984FF4FE4E4EF0FF0E4FEA12
:101DD000946444EA85144FEAE47CBCEBE43F18BF0A
:101DE0008CEA0E044FEA986848EA89184FEAE87CC2
:101DF000BCEBE83F18BF8CEA0E080480A0F8028014
:101E000002F5707201F580514FF000744FF00078C8
:101E10004FF000054FF0000952F804CB0868D1F8E4
:101E20008030C0FB0C45C3FB0C8952F804CB4868DA
:101E3000D1F88430C0FB0C45C3FB0C8952F804CBAD
:101E40008868D1F88830C0FB0C45C3FB0C8952F878
:101E500004CBC868D1F88C30C0FB0C45C3FB0C899F
:101E600052F804CB0869D1F89030C0FB0C45C3FB95
:101E70000C8952F804CB4869D1F89430C0FB0C456A
:101E8000C3FB0C8952F804CB8869D1F89830C0FBA9
:101E90000C45C3FB0C8952F804CBC869D1F89C30BF
:101EA000C0FB0C45C3FB0C8901984FF4FE4E4EF06D
:101EB000FF0E4FEA946444EA85144FEAE47CBCEBDD
:101EC000E43F18BF8CEA0E044FEA986848EA891884
:101ED0004FEAE87CBCEBE83F18BF8CEA0E08A0F89C
:101EE0004040A0F84280A2F57872A1F570614FF0F1
:101EF0000F0C00F10400CDF800C001904FF0007409
:101F00004FF000784FF000764FF0007A4FF0000568
:101F10004FF000094FF000074FF0000B52F804CBD0
:101F200052F804EB0868CB6DC0FB0C45C0FB0E6794
:101F3000CEF1000EC3FB0C67C3FB0E45D1F8DC30BD
:101F4000D1F88000C3FB0E89C3FB0CABCEF1000EB1
:101F5000C0FB0C89C0FB0EAB52F804CB52F804EB6B
:101F600048688B6DC0FB0C45C0FB0E67CEF1000EC0
:101F7000C3FB0C67C3FB0E45D1F8D830D1F8840001
:101F8000C3FB0E89C3FB0CABCEF1000EC0FB0C896A
:101F9000C0FB0EAB52F804CB52F804EB88684B6DD3
:101FA000C0FB0C45C0FB0E67CEF1000EC3FB0C67F7
:101FB000C3FB0E45D1F8D430D1F88800C3FB0E899D
:101FC000C3FB0CABCEF1000EC0FB0C89C0FB0EAB0B
:101FD00052F804CB52F804EBC8680B6DC0FB0C45FB
:101FE000C0FB0E67CEF1000EC3FB0C67C3FB0E45B2
:101FF000D1F8D030D1F88C00C3FB0E89C3FB0CABF9
:10200000CEF1000EC0FB0C89C0FB0EAB52F804CB26
:1020100052F804EB0869CB6CC0FB0C45C0FB0E67A3
:10202000CEF1000EC3FB0C67C3FB0E45D1F8CC30DC
:10203000D1F89000C3FB0E89C3FB0CABCEF1000EB0
:10204000C0FB0C89C0FB0EAB52F804CB52F804EB7A
:1020500048698B6CC0FB0C45C0FB0E67CEF1000ECF
:10206000C3FB0C67C3FB0E45D1F8C830D1F8940010
:10207000C3FB0E89C3FB0CABCEF1000EC0FB0C8979
:10208000C0FB0EAB52F804CB52F804EB88694B6CE2
:10209000C0FB0C45C0FB0E67CEF1000EC3FB0C6706
:1020A000C3FB0E45D1F8C430D1F89800C3FB0E89AC
:1020B000C3FB0CABCEF1000EC0FB0C89C0FB0EAB1A
:1020C00052F804CB52F804EBC8690B6CC0FB0C450A
:1020D000C0FB0E67CEF1000EC3FB0C67C3FB0E45C1
:1020E000D1F8C030D1F89C00C3FB0E89C3FB0CAB08
:1020F000CEF1000EC0FB0C89C0FB0EAB01F5807168
:1021000001984FF4FE4E4EF0FF0E4FEA946444EAFD
:1021100085144FEAE47CBCEBE43F18BF8CEA0E0464
:102120004FEA986848EA89184FEAE87CBCEBE83F38
:1021300018BF8CEA0E084FEA966646EA87164FEA01
:10214000E67CBCEBE63F18BF8CEA0E064FEA9A6AC3
:102150004AEA8B1A4FEAEA7CBCEBEA3F18BF8CEAEA
:102160000E0ADDF800C000EBCC0E2EF8026B2EF844
:1021700002AB20F8024B20F8028BBCF1010C7FF47B
:10218000BAAE02B0BDE8F08F2DE9F04F82B00190F9
:102190004FF000744FF0000552F804CB52F804EBF6
:1021A0000868CB6DCEF1000EC0FB0C45C3FB0E459D
:1021B00052F804CB52F804EB48688B6DCEF1000E58
:1021C000C0FB0C45C3FB0E4552F804CB52F804EBA0
:1021D00088684B6DCEF1000EC0FB0C45C3FB0E456D
:1021E00052F804CB52F804EBC8680B6DCEF1000E28
:1021F000C0FB0C45C3FB0E4552F804CB52F804EB70
:102200000869CB6CCEF1000EC0FB0C45C3FB0E453C
:1022100052F804CB52F804EB48698B6CCEF1000EF7
:10222000C0FB0C45C3FB0E4552F804CB52F804EB3F
:1022300088694B6CCEF1000EC0FB0C45C3FB0E450C
:1022400052F804CB52F804EBC8690B6CCEF1000EC7
:10225000C0FB0C45C3FB0E4501984FF4FE4E4EF0FB
:10226000FF0E4FEA946444EA85144FEAE47CBCEB29
:10227000E43F18BF8CEA0E04048002F5707201F589
:1022800080514FF000744FF0000552F804CB0868FD
:10229000C0FB0C4552F804CB4868C0FB0C4552F813
:1022A00004CB8868C0FB0C4552F804CBC868C0FB5F
:1022B0000C4552F804CB0869C0FB0C4552F804CB1E
:1022C0004869C0FB0C4552F804CB8869C0FB0C453B
:1022D00052F804CBC869C0FB0C4501984FF4FE4E80
:1022E0004EF0FF0E4FEA946444EA85144FEAE47C12
:1022F000BCEBE43F18BF8CEA0E040484A2F57872AC
:10230000A1F570614FF00F0C00F10200CDF800C094
:1023100001904FF000744FF000764FF000054FF041
:10232000000752F804CB52F804EB0868CB6DC0FBF1
:102330000C45C0FB0E67CEF1000EC3FB0E45C3FB80
:102340000C6752F804CB52F804EB48688B6DC0FB65
:102350000C45C0FB0E67CEF1000EC3FB0E45C3FB60
:102360000C6752F804CB52F804EB88684B6DC0FB45
:102370000C45C0FB0E67CEF1000EC3FB0E45C3FB40
:102380000C6752F804CB52F804EBC8680B6DC0FB25
:102390000C45C0FB0E67CEF1000EC3FB0E45C3FB20
:1023A0000C6752F804CB52F804EB0869CB6CC0FB05
:1023B0000C45C0FB0E67CEF1000EC3FB0E45C3FB00
:1023C0000C6752F804CB52F804EB48698B6CC0FBE5
:1023D0000C45C0FB0E67CEF1000EC3FB0E45C3FBE0
:1023E0000C6752F804CB52F804EB88694B6CC0FBC5
:1023F0000C45C0FB0E67CEF1000EC3FB0E45C3FBC0
:102400000C6752F804CB52F804EBC8690B6CC0FBA4
:102410000C45C0FB0E67CEF1000EC3FB0E45C3FB9F
:102420000C6701F5807101984FF4FE4E4EF0FF0EDF
:102430004FEA946444EA85144FEAE47CBCEBE43F41
:1024400018BF8CEA0E044FEA966646EA87164FEAF2
:10245000E67CBCEBE63F18BF8CEA0E06DDF800C058
:1024600000EB8C0E2EF8026B20F8024BBCF1010C35
:102470007FF44CAF02B0BDE8F08F000081FB00207C
:10248000704701464FF0000081EAE170A0EBE17077
:10249000704700002DE9FE4F8446D0F800E0DCF8DC
:1024A00004B00EF1BC0292E80C040CF11C0696E894
:1024B000C003BBEB0A0ACEF8C4A0CEF8C8B00BFB31
:1024C00006F00AFB070003FB080002FB0900C8BF77
:1024D0006FF0000AB8BF4FF0010ABBF1000FC8BF90
:1024E0006FF0000BB8BF4FF0010BCEF844A0CEF850
:1024F00048B0DCF80C60DCF810700EF1980292E83D
:102500001C04C6EB4616A7EB661BCCF80C700CF14E
:102510003C0595E8E003BBEB0A0ACEF8A4A0CEF890
:10252000A8B00BFB05F10AFB061104FB071103FB26
:10253000081102FB0911C8BF6FF0000AB8BF4FF0C5
:10254000010ABBF1000FC8BF6FF0000BB8BF4FF01E
:10255000010BCEF824A0CEF828B0009A00EB610061
:10256000DCF818401368C4EB441403EBA021CCF84A
:10257000041001EB6411CCF8181042F8041B00920F
:10258000002B39D00EF118021CCA1EDBA5EB0B057F
:10259000A6EB0A06A9EB0209A8EB0308A7EB0407C0
:1025A0000CF13C0080E8E0030CF11C0191E83C00D8
:1025B0000EF13C0696E8C003A5EB0605A4EB070464
:1025C000A3EB0803A2EB090214E05D4456449144D6
:1025D000984427440CF13C0080E8E0030CF11C0116
:1025E00091E83C000EF13C0696E8C00335443C44BB
:1025F00043444A4481E83C00DCF808B00EF17C0218
:1026000092E80C040CF12C0696E8C003BBEB0A0A16
:10261000CEF884A0CEF888B00BFB06F00AFB0700CA
:1026200003FB080002FB0900C8BF6FF0000AB8BF37
:102630004FF0010ABBF1000FC8BF6FF0000BB8BF2D
:102640004FF0010BCEF834A0CEF838B0DCF81460AF
:10265000DCF818700EF1580292E81C04C6EB46161E
:10266000A7EB661BCCF814700CF1500595E8E0035D
:10267000BBEB0A0ACEF864A0CEF868B00BFB05F1FC
:102680000AFB061104FB071103FB081102FB0911E9
:10269000C8BF6FF0000AB8BF4FF0010ABBF1000FCE
:1026A000C8BF6FF0000BB8BF4FF0010BCEF810A001
:1026B000CEF814B0019A00EB6100DCF8104013680A
:1026C000C4EB441403EBA021CCF8081001EB641117
:1026D000CCF8101042F8041B0192002B39D00EF1F7
:1026E00004021CCA1EDBA5EB0B05A6EB0A06A9EB30
:1026F0000209A8EB0308A7EB04070CF1500080E8DF
:10270000E0030CF12C0191E83C000EF12C0696E858
:10271000C003A5EB0605A4EB0704A3EB0803A2EB9B
:10272000090214E05D4456449144984427440CF156
:10273000500080E8E0030CF12C0191E83C000EF120
:102740002C0696E8C00335443C4443444A4481E89F
:102750003C000EF1040E0CF1640BAEF5006A029819
:10276000DA4509D0401E18BF02907FF498AECCF82D
:1027700000E003B0BDE8F08FBEE8FF03ABE8FF0365
:10278000BEE8FF03ABE8FF03BEE8FF03ABE8FF03CF
:10279000BEE8FF03ABE8FF03BEE8FF03ABE8FF03BF
:1027A00002980CF1640E401E18BF02907FF477AEC1
:1027B000DDE72DE9F64F8446D0F800E0DCF804B000
:1027C0000EF1BC0292E80C040CF11C0595E8C00364
:1027D000BBEB0A0ACEF8C4A0CEF8C8B00BFB06F0DB
:1027E0000AFB070003FB080002FB0900C8BF6FF0EB
:1027F000000AB8BF4FF0010ABBF1000FC8BF6FF06D
:10280000000BB8BF4FF0010BCEF844A0CEF848B093
:10281000009ADCF818401368C4EB441403EBA021C1
:10282000CCF8041001EB6411CCF8181042F8041B2A
:102830000092002B13D0DEF83C20DEF8403008DB9D
:10284000A6EB0B06A7EB0A07A9EB0209A8EB030806
:1028500003E05E4457449144984485E8C0030EF178
:10286000040E0CF1640BAEF5006A0198DA4508D04D
:10287000401E18BF0190A1D1CCF800E002B0BDE825
:10288000F08FBEE8FF03ABE8FF03BEE8FF03ABE851
:10289000FF03BEE8FF03ABE8FF03BEE8FF03ABE8BE
:1028A000FF03BEE8FF03ABE8FF0301980CF1640EE1
:1028B000401E18BF019081D1DEE7000010B5FF482F
:1028C00000682DF09FFCFE4800682DF09BFCFD4841
:1028D00000682DF097FCFC4800682DF093FCFB4845
:1028E00000682DF08FFCFA4800682DF08BFCF94849
:1028F00000682DF087FC10BD10B500244FF4007067
:102900002DF084FCED4908600846006800B90124F8
:102910004FF400702DF07AFCE94908600846006821
:1029200000B901244FF400702DF070FCE5490860F7
:102930000846006800B90124A0202DF067FCE24998
:1029400008600846006800B9012440202DF05EFCB4
:10295000DE4908600846006800B9012440202DF0D7
:1029600055FCDB4908600846006800B901244FF4B3
:10297000F8702DF04BFCD74908600846006800B994
:1029800001240CB1FFF79AFF204610BD2DE9F04756
:1029900004460D461646701B00EBD07105EB61092D
:1029A00054F8397004EBC901486887F054F8804640
:1029B00054F8350044F8390004EBC500406804EBD6
:1029C000C9014860A94605F1010A1DE054F83A0022
:1029D000394687F07FF815D854F83A0044F83900A2
:1029E00004EBCA00406804EBC901486009F1010921
:1029F00054F8390044F83A0004EBC900406804EB8D
:102A0000CA0148600AF1010AB245DFDDA9EB050001
:102A1000012805DDA9F1010229462046FFF7B6FF8E
:102A2000A6EB0900012805DD324609F10101204627
:102A3000FFF7ACFF44F83970404687F013F804EB19
:102A4000C9014860BDE8F0872DE9F84F04460D46FE
:102A500016461F464FF0000828E04FF0000920E01E
:102A60004FF0000BDA4612E00B9A0AFB029255F87F
:102A700022100A9A08FB02A254F8220087F042F8BA
:102A80005946009086F0C9FF83460AF1010A0A9868
:102A90008245E9DB0B9808FB009046F820B009F16D
:102AA00001090B988145DBDB08F10108B845D4DB4F
:102AB000BDE8F88F024612B909B900207047002A14
:102AC00002DD09B90020F9E7002903DD8A4201DDB2
:102AD0000120F3E7002A03DD914201D10220EDE756
:102AE000002A03DD8A4201DA0320E7E71AB9002948
:102AF00001DD0420E2E7002A08DA101E01DB0346AC
:102B000000E043428B4201DA0520D7E7002A08DAC9
:102B1000101E01DB034600E043428B4201D1062038
:102B2000CCE7002A0ADA101E01DB034600E043422C
:102B30008B4203DD002901DD0720BFE719B9002A18
:102B400001DA0820BAE7002903DA914201DD092001
:102B5000B4E7002A03DA914201D10A20AEE7002A45
:102B600003DA914201DA0B20A8E71AB9002901DA49
:102B70000C20A3E700290ADA081E01DB034600E067
:102B80004342934203DD002A01DD0D2096E7002930
:102B900008DA081E01DB034600E04342934201D1FC
:102BA0000E208BE7002908DA081E01DB034600E04F
:102BB0004342934201DA0F2080E700207EE730B5E0
:102BC000034601B10AB9002030BD412901D0412A94
:102BD00001D10020F8E7491E521E03EBC20000EBB2
:102BE000E100047801F007050120A840044201D06B
:102BF0000120E9E70020E7E72DE9FE4F04460D46F6
:102C000016461F4600200190781C820000213248A1
:102C10002DF000FB781C8200002130482DF0FAFADC
:102C20004FF0000819E04FF0000912E004EBC80073
:102C300000EBE900017809F0070201209040014211
:102C400005D04FF07E51019886F0E7FE019009F122
:102C50000109B145EADB08F10108A845E3DB384684
:102C600086F000FF82460146019886F0EBFE019057
:102C70000120029049E04FF0000AD0463AE04FF0C0
:102C8000000912E004EBC90000EBE800017808F04D
:102C9000070201209040014205D04FF07E5150467E
:102CA00086F0BBFE824609F10109A945EADB0298DC
:102CB00086F0D8FE0090019912E00000F80A00208A
:102CC000FC0A0020000B0020040B0020080B002051
:102CD0000C0B0020100B002078D902208CD9022088
:102CE00086F010FF8346514686F0F4FE00D804E0DB
:102CF00008F10108701E4045C1DC00BFFD48029983
:102D000040F821800298401C0290781C0299814270
:102D1000B1DB0120029035E04FF0000AD14626E0F9
:102D20004FF0000812E004EBC90000EBE800017866
:102D300008F0070201209040014205D04FF07E517B
:102D4000504686F06AFE824608F10108B045EADB8B
:102D5000029886F087FE0090019986F0D3FE8346A4
:102D6000514686F0B7FE00D804E009F10109681E5B
:102D70004845D5DC00BFE049029841F82090029810
:102D8000401C0290781C02998142C5DB0020029011
:102D900032E0029991FBF7F1D74A52F821200299CB
:102DA00091FBF7F1491CD44B53F82110501800EB5C
:102DB000D0714910D14A1268029B42F8231002993F
:102DC00091FBF7F207FB1211CA4A52F8212002992F
:102DD00091FBF7F307FB1311491CC64B53F8211065
:102DE000501800EBD0714910C54A1268029B42F896
:102DF00023100298401C029007FB07F002998842BA
:102E0000C7DCBDE8FE8F2DE9F34F8FB04024402092
:102E10000A901025AA000021B94800682DF0FAF99F
:102E2000AA000021B54800682DF0F4F904232146DA
:102E30000A9A0F98FFF7E0FEE2000021B14800680F
:102E40002DF0E8F900200B9060E3AC4801680B9886
:102E500051F820000290AA4801680B9851F8200010
:102E6000019002980830402801DD402001E00298DE
:102E70000830089001980830402801DD402001E02A
:102E80000198083006900298083801D5002001E02A
:102E90000298083809900198083801D5002001E00F
:102EA00001980838079009980E9027E307980D902D
:102EB0001CE3DDE90D120F98FFF781FE8146DDE985
:102EC0000D12491C0F98FFF77AFE022101FB0099B1
:102ED000DDE90D12891C0F98FFF771FE81440E9AEF
:102EE000921C0D990F98FFF76AFEA9EB00090E9A44
:102EF000921C0D99491C0F98FFF761FE022101FBFE
:102F000010990E9A921C0D99891C0F98FFF757FE85
:102F1000A9EB000007B2DDE90D12891C0F98FFF73D
:102F20004EFE81460E9A521C0D99891C0F98FFF790
:102F300046FE022101FB00990E9A921C0D99891CF4
:102F40000F98FFF73CFE8144DDE90D120F98FFF763
:102F500036FEA9EB00090E9A521C0D990F98FFF747
:102F60002EFE022101FB10990E9A921C0D990F98CA
:102F7000FFF725FEA9EB00000FFA80F8002F02DB17
:102F8000B8F1000F00DA00BF41463846FFF792FD66
:102F90000390039841100B9801FB05060398401C11
:102FA00040100B9900FB0510059002990E98401AED
:102FB000083000EB0010019A0D99891A0844083076
:102FC000514951F820000490039810281CD2DFE8E2
:102FD00000F0081C4A629FB3F2F0EFEEEDECEBEA72
:102FE000E9E8384686F03EFD8246049986F08AFD7F
:102FF00081464448006850F82610484686F00DFD8A
:103000004049096841F826006CE2A7EB080086F009
:1030100029FD8246049986F075FD8146394800688D
:1030200050F82610484686F0F8FC3649096841F801
:103030002600404686F016FD8346344986F062FD40
:103040008246049986F05EFD81462E480268059806
:1030500052F82010484686F0E0FC2A490968059A93
:1030600041F822003EE2404686F0FCFC83462749B8
:1030700086F048FD8246049986F044FD8146214849
:10308000006850F82610484686F0C7FC1D490968BC
:1030900041F8260026E2384686F0E4FC83461B49C8
:1030A00086F030FD8246049986F02CFD8146154855
:1030B000006850F82610484686F0AFFC11490968B0
:1030C00041F82600A8EB070086F0CCFC8246049964
:1030D00086F018FD81460B480268059852F82010CA
:1030E000484686F09AFC07490A68059942F821008B
:1030F000F8E1000078D902208CD902200C0B0020C6
:10310000080B0020FC0A0020E8450A08F704B53F38
:10311000404686F0A7FC8246049986F0F3FC81467F
:10312000FE48006850F82610484686F076FCFB49B9
:10313000096841F82600D5E107EB080086F092FC0B
:103140008246049986F0DEFC8146F448006850F817
:103150002610484686F061FCF049096841F82600CF
:10316000B7F1000901DB494601E0C9F10001084659
:1031700086F078FCEA49009086F0C4FC8346049906
:1031800086F0C0FC8246E5480068059A50F8221097
:10319000504686F042FCE1490968059A41F8220050
:1031A000A0E166E14DE111E1F5E0BFE09FE069E0FB
:1031B0004DE018E0FFE7404686F054FC8346D849CE
:1031C00086F0A0FC8246049986F09CFC8146D34898
:1031D000006850F82610484686F01FFCCF49096861
:1031E00041F826007EE1404686F03CFC8346CC490F
:1031F00086F088FC8246049986F084FC8146C748A4
:10320000006850F82610484686F007FCC349096854
:1032100041F8260017EB080901D4494601E0C9F13D
:103220000001084686F01EFC8346049986F06AFC7D
:103230008246BA480068059A50F82210504686F037
:10324000ECFBB6490968059A41F822004AE1B7F15A
:10325000000901DB494601E0C9F10001084686F09A
:1032600001FC8346049986F04DFC8246AB48006819
:1032700050F82610504686F0D0FBA849096841F85E
:1032800026002FE1A8EB070086F0ECFB82460499AC
:1032900086F038FC8146A148006850F82610484660
:1032A00086F0BBFB9D49096841F82600B8F100098A
:1032B00001DB494601E0C9F10001084686F0D2FB76
:1032C0009749009086F01EFC8346049986F01AFC0C
:1032D000824692480068059A50F82210504686F0BF
:1032E0009CFB8E490A68059942F82100FAE0B8F182
:1032F000000901DB494601E0C9F10001084686F0FA
:10330000B1FB8749009086F0FDFB8346049986F067
:10331000F9FB82468148006850F82610504686F036
:103320007CFB7E49096841F82600DBE0B7F1000923
:1033300001DB494601E0C9F10001084686F092FB35
:103340007749009086F0DEFB8346049986F0DAFB2D
:1033500082467248006850F82610504686F05DFBA1
:103360006E49096841F82600A7EB080086F07AFB51
:103370008246049986F0C6FB814668480268059833
:1033800052F82010484686F048FB64490A680599BF
:1033900042F82100A6E0B8F1000901DB494601E04E
:1033A000C9F10001084686F05DFB8346049986F06A
:1033B000A9FB82465948006850F82610504686F00E
:1033C0002CFB5649096841F826008BE017EB0809E9
:1033D00001D4494601E0C9F10001084686F042FBEC
:1033E0008346049986F08EFB82464C48006850F86C
:1033F0002610504686F011FB4849096841F826001E
:10340000B7F1000901DB494601E0C9F100010846B6
:1034100086F028FB4249009086F074FB83460499AD
:1034200086F070FB82463D480068059A50F82210ED
:10343000504686F0F2FA39490A68059942F82100A7
:1034400050E0384686F00EFB8346354986F05AFB3D
:103450008246049986F056FB81463048006850F851
:103460002610484686F0D9FA2C49096841F826000A
:1034700038E0B8F1000901DB494601E0C9F100017B
:10348000084686F0EFFA2649009086F03BFB83461B
:10349000049986F037FB82462048006850F82610D1
:1034A000504686F0BAFA1D49096841F8260017EB24
:1034B000080901D4494601E0C9F10001084686F037
:1034C000D1FA8346049986F01DFB824613480068B2
:1034D00050F82610504686F0A0FA1049096841F8C5
:1034E000260000BF00BF0D98401C0D9006990D9856
:1034F00088427FF7DEAC0E98401C0E9008990E981B
:1035000088427FF7D3AC0B98401C0B900B98A842D5
:103510007FF49BAC00200B901FE00000FC0A002011
:10352000F704B53F00200C9011E0DDE90B0101FB31
:103530000506FF49096851F82600FE4964F09AFF24
:10354000FD49096841F826000C98401C0C900C9825
:103550000828EADB0B98401C0B900B981028E1DB45
:1035600011B0BDE8F08F2DE9FF4F8BB004460D463A
:103570001E46199F0020079090E2079805EB8000F7
:103580000088ADF82800079805EB80004088ADF86A
:103590002A000798401C05EB80000088ADF8240045
:1035A0000798401C05EB80004088ADF82600BDF967
:1035B0002800BDF92410884272D1BDF92A00089074
:1035C00067E0002E41D04FF0FF383AE04FF0FF3077
:1035D000069031E0089810EB08002AD4089800EB18
:1035E00008011898814224DABDF92800069940188C
:1035F0001FD4BDF9281006980844B84219DABDF95D
:1036000028100698084405900898404404EBC00030
:10361000059900EBE100007801F0070201219140DB
:1036200008430899414404EBC101059A01EBE2010A
:1036300008700698401C069006980228CAD108F126
:103640000108B8F1020FC1D116E0BDF928000590BC
:10365000089804EBC001059801EBE000007805999B
:1036600001F00702012191400843089904EBC102CF
:10367000059902EBE1010870BDF92600BDF92A1099
:10368000884203DD0898401C089002E00898401E1C
:103690000890BDF926100898814292D1FBE1FFE71E
:1036A000BDF92A00BDF92610884275D1BDF9280060
:1036B00008906AE0002E42D04FF0FF383BE04FF018
:1036C000FF30069032E00699089840182BD40699EE
:1036D000089808441899884225DABDF92A0010EBA9
:1036E000080020D4BDF92A004044B8421BDA0699EC
:1036F000089808440590BDF92A00404404EBC00135
:10370000059801EBE0000078059901F0070201211E
:1037100091400843BDF92A10414404EBC1020599C8
:1037200002EBE10108700698401C069006980228FA
:10373000C9D108F10108B8F1020FC0D118E008980A
:103740000590BDF92A0004EBC001059801EBE000EB
:103750000178059800F00702012090400143C8B2AB
:10376000BDF92A1004EBC101059A01EBE2010870D2
:10377000BDF92400BDF92810884203DD0898401CDB
:10378000089002E00898401E0890BDF9241008989F
:1037900081428FD17FE1FFE7BDF92410BDF92820D8
:1037A000881A86F05FF98246BDF92610BDF92A20F5
:1037B000881A86F057F98346514686F043F98146C8
:1037C00086F000F9CDE9020121F00041CDE90001C8
:1037D0005AA00CC8009885F0C3FD13D2BDF924107F
:1037E000BDF92820881A86F03DF98146BDF92610DA
:1037F000BDF92A20881A86F035F98246494686F0B6
:1038000021F912E0BDF92610BDF92A20881A86F0A8
:1038100029F98146BDF92410BDF92820881A86F0BF
:1038200021F98246494686F00DF90490BDF924201D
:10383000BDF92830D01ABDF92620BDF92A30D11A99
:1038400001D40B4600E04B42002801DB024600E0B9
:10385000424293426BDA002008907EE0089886F09E
:1038600001F90390049986F04DF9834686F0F3F848
:10387000BDF92A1000EB0109BDF92800089900EBF9
:10388000010A002E3CD04FF0FF3835E04FF0FF30FA
:1038900006902CE019EB080026D409EB08001899D3
:1038A000884221DA06981AEB00001DD4069850448D
:1038B000B84219DA0AF10100059009EB080004EB9F
:1038C000C000059900EBE1000178059800F00702BF
:1038D000012090400143C8B209EB080104EBC1018B
:1038E000059A01EBE20108700698401C06900698C4
:1038F0000228CFD108F10108B8F1020FC6D113E0B8
:10390000CDF814A004EBC900DDF814A000EBEA0028
:1039100001780AF00702012090400143C8B204EB8D
:10392000C90101EBEA010870BDF924000AE01EE0BC
:10393000FC0A002085EBD13E000B002000000000B7
:103940000000F03FBDF92810884203DD0898401CB4
:10395000089002E00898401E0890BDF92400BDF9C7
:103960002810401A089988427FF478AF92E0BDF998
:103970002420BDF92830D01ABDF92620BDF92A30FF
:10398000D11A01D40B4600E04B42002801DB02466D
:1039900000E0424293427DDB0020089072E0BDF9D6
:1039A0002A10089801EB0009089886F05BF803904C
:1039B000049986F0A7F8834686F04DF8BDF92810E3
:1039C00000EB010A002E3CD04FF0FF3835E04FF0FD
:1039D000FF3006902CE019EB080026D409EB080113
:1039E0001898814221DA06981AEB00001DD4069837
:1039F0005044B84219DA06985044059009EB080083
:103A000004EBC000059900EBE1000178059800F097
:103A10000702012090400143C8B209EB080104EB02
:103A2000C101059A01EBE20108700698401C06905E
:103A300006980228CFD108F10108B8F1020FC6D1CB
:103A400013E0CDF814A004EBC900DDF814A000EBDE
:103A5000EA0001780AF00702012090400143C8B251
:103A600004EBC90101EBEA010870BDF92600BDF9BC
:103A70002A10884203DD0898401C089002E008984C
:103A8000401E0890BDF92600BDF92A10411A089879
:103A9000814284D100BF0798401C07900D98411EB9
:103AA000079881427FF469AD0FB0BDE8F08F2DE932
:103AB000F04F099C15464FF0FF360F46B4464FF0C5
:103AC000000935E000EB890ABAF902A0BA4504DA28
:103AD00000EB890ABAF902A000E0BA46574600EBAB
:103AE000890ABAF900A0AA4504DA00EB890ABAF9F2
:103AF00000A000E0AA46554600EB890ABAF902A0E8
:103B0000E24504DD00EB890ABAF902A000E0E246D2
:103B1000D44600EB890ABAF900A0B24504DD00EBF7
:103B2000890ABAF900A000E0B246564609F1010937
:103B3000DDF828A0D145C5DBACEB070A0AF1010A84
:103B400093FBFAFA0AF1010EA6EB050A0AF1010A43
:103B500094FBFAFA0AF101084FF000092BE000EBA0
:103B6000890ABAF902A0AAEB070A0AFB03FAACEB2E
:103B7000070B0BF1010B9AFBFBFAF2440FFA8AFADE
:103B800000EB890BABF802A000EB890ABAF900A0A0
:103B9000AAEB050A0AFB04FAA6EB050B0BF1010BD5
:103BA0009AFBFBFAC2440FFA8AFA00EB890BABF8D6
:103BB00000A009F10109DDF828A0D145CFDBBDE85F
:103BC000F08F2DE9FF4784B014461D46BDF9100063
:103BD000BDF91410884223D1002619E0BDF8100069
:103BE000296804EB81010880BDF81200304400B25E
:103BF000296804EB810148802868401C2860BDF9D1
:103C00001600BDF91210884201DD761C00E0761E18
:103C1000BDF91600BDF91210401AB042DED1E9E03C
:103C2000BDF91200BDF91610884223D1002619E013
:103C3000BDF81200296804EB81014880BDF810002E
:103C4000304400B2296804EB810108802868401CD8
:103C50002860BDF91400BDF91010884201DD761C02
:103C600000E0761EBDF91400BDF91010401AB042F4
:103C7000DED1BFE0BDF91410BDF91020881A85F01F
:103C8000F1FE8146BDF91610BDF91220881A85F0A3
:103C9000E9FE8246494685F0D5FE804685F092FED3
:103CA000CDE9020121F00041CDE90001AFF274300D
:103CB0000CC8009885F054FB13D2BDF91410BDF95F
:103CC0001020881A85F0CEFE8046BDF91610BDF989
:103CD0001220881A85F0C6FE8146414685F0B2FE64
:103CE00012E0BDF91610BDF91220881A85F0BAFE4F
:103CF0008046BDF91410BDF91020881A85F0B2FE77
:103D00008146414685F09EFE0746BDF91420BDF967
:103D10001030D01ABDF91620BDF91230D11A01D4D5
:103D20000B4600E04B42002801DB024600E0424225
:103D300093422FDC002625E0BDF81000304400B28D
:103D4000296804EB81010880304685F08BFE8146AE
:103D5000394685F0D7FE804685F07DFEBDF812100D
:103D6000084400B2296804EB810148802868401C9F
:103D70002860BDF91400BDF91010884201DD761CE1
:103D800000E0761EBDF91400BDF91010401AB042D3
:103D9000D2D12EE0002625E0BDF81200304400B25A
:103DA000296804EB81014880304685F05BFE81463E
:103DB000394685F0A7FE804685F04DFEBDF810100F
:103DC000084400B2296804EB810108802868401C7F
:103DD0002860BDF91600BDF91210884201DD761C7D
:103DE00000E0761EBDF91600BDF91210401AB0426F
:103DF000D2D100BF08B0BDE8F0872DE9F84F0446E6
:103E00000D461646701E00EBD0714FEA6109A5EB16
:103E100009000090CA46A8002CF0F8F98346AA00D1
:103E20002146584606F01DFDB54205DB06EBD6716E
:103E30004910B6EB410101D1BDE8F88F4F463CE097
:103E4000002004EB8701088004EB87014880CAF159
:103E500000081BE004EB8700008807EB08010BEB70
:103E600081010988084400B204EB8701088004EB53
:103E70008700408807EB08010BEB81014988084463
:103E800000B204EB8701488008F10108D045E1DD6C
:103E900004EB8700B0F9000090FBF6F000B204EBF1
:103EA0008701088004EB8700B0F9020090FBF6F070
:103EB00000B204EB870148807F1C00988742BFDB7B
:103EC00058462CF09FF9B7E72DE9FF4F91B0044613
:103ED0000D461E9E0327802010900F9040200E90CC
:103EE0000D9000200B900A908146802009900520BB
:103EF000049029462046049AFFF77FFF4FF0010AFD
:103F000029E004EB8A01B1F90010AAF1010204EBE7
:103F10008202B2F90020881A01D4014600E0414231
:103F2000089104EB8A01B1F90210AAF1010204EB35
:103F30008202B2F90220881A01D4014600E041420F
:103F40000791DDE90710884201DB089800E0079837
:103F500081440AF1010AAA45D3DB4FEA89002CF01B
:103F600055F980464FEA8902002140462CF052F96B
:103F70004FF0000A15E00AF1010004EB8001042271
:103F800003A806F06EFC04EB8A01042202A806F0E6
:103F900068FC0AAB4246DDE90201FFF712FE0AF1B6
:103FA000010A681E5045E6D14FEA8900B0FBF7F0E0
:103FB00003902CF02BF90C904FEA8900B0FBF7F03E
:103FC0000246002103900C982CF024F94FF0000ACF
:103FD00013E008EB8A000088DDE90B2101EB820188
:103FE000088008EB8A004088DDE90B2101EB8201A3
:103FF00048800B98401C0B90BA44CA45E9DB404608
:104000002CF000F90B9B0E9ACDE90023DDE90C039F
:10401000DDE90F12FFF74BFD4FF400720021FD4860
:1040200000682CF0F7F8DDE90D23CDE9002301232A
:10403000F848DDE90B210068FFF795FA0C982CF0A1
:10404000E1F8F44809990068FEF7DDFE2823099A93
:10405000CDE900230123F048F0490268F0480068E8
:10406000FEF7F2FC1498012806D0022809D0032894
:104070000CD0042814D10EE0002006900A200590F0
:1040800012E00A200690242005900DE024200690DE
:104090003E20059008E0002006903E20059003E0B9
:1040A000002015B0BDE8F08F00BF4FF4F87200217A
:1040B000DC4800682CF0AEF84FF0000A40E04FF00A
:1040C000000B30E0069A524402EB8202D64B03EB1F
:1040D000421252F82B10D04A126852F82B0085F089
:1040E0006AFD0290069A524402EB8202CE4B03EB29
:1040F000421252F82B10C84A126852F82B0085F071
:104100005AFD0190029985F0FDFC0390C5480068B6
:1041100050F83A10039885F080FCC249096841F8CC
:104120003A000BF1010BBBF1280FCBD1504685F0C3
:1041300099FCBC49096801EBCA0148600AF1010A0F
:10414000DDE90501401A5045B9D1DDE90501401A04
:10415000421E0021B3480068FEF718FC4FF0000A29
:104160000EE0B049096801EBCA01486885F073FCAC
:1041700006990844AD49085C06F80A000AF1010AEC
:1041800013988245EDDB002006F80A00307888E7B6
:104190002DE9F84F04460D4616461F46DDF82880E7
:1041A0004FF000094FF6FF7AD346012D02DCC846D6
:1041B000BDE8F88F4FF000091CE004EB8900B0F96E
:1041C000001009F1010004EB8000B0F90000814209
:1041D0000BD104EB8900B0F9021009F1010004EBE6
:1041E0008000B0F90200814200D006E009F1010030
:1041F0001FFA80F9681E4845DFDC00BF681E48458D
:1042000000D1D5E74FF0000919E004EB8900B0F9BF
:104210000000504504DA04EB890000881FFA80FA98
:1042200004EB8900B0F90200584504DA04EB890078
:1042300040881FFA80FB09F101001FFA80F9A945A7
:10424000E3DB4FF0000915E004EB89000088A0EBE8
:104250000A0000B204EB8901088004EB8900408861
:10426000A0EB0B0000B204EB8901488009F10100CA
:104270001FFA80F9A945E7DB3B463246294620462E
:10428000CDF80080FFF720FE92E72DE9F84F4FF0C0
:104290000009C3F800900124EBE0A4F1010900EB50
:1042A0008909B9F9005000EB8409B9F900A0CDF8EB
:1042B00000A0A4F1010900EB8909B9F9026000EB43
:1042C0008409B9F90270DDF800A0BAEB050901D440
:1042D000CA4601E0C9F1000AD446B7EB060901D489
:1042E000CA4601E0C9F1000AD646F44559DD4FF04F
:1042F000000853E0DDF80090A9450ADD05EB080948
:104300000FFA89F9D3F800A002EB8A0AAAF8009004
:1043100009E0A5EB08090FFA89F9D3F800A002EB30
:104320008A0AAAF80090B7421ADDD3F800A002EB7F
:104330008A0ABAF900A0BAEB050901D4CA4601E01D
:10434000C9F1000A0AFB0EFA9AFBFCFAB2440FFA12
:104350008AFAD3F800B002EB8B0BABF802A01AE09C
:10436000D3F800A002EB8A0ABAF900A0BAEB05095B
:1043700001D4CA4601E0C9F1000A0AFB0EFA9AFB11
:10438000FCFAA6EB0A0A0FFA8AFAD3F800B002EB9D
:104390008B0BABF802A01B1D08F10108E045A9DB5F
:1043A00066E04FF0000861E0B7420ADD06EB08095D
:1043B0000FFA89F9D3F800A002EB8A0AAAF8029052
:1043C00009E0A6EB08090FFA89F9D3F800A002EB7F
:1043D0008A0AAAF80290DDF80090A94528DDD3F8F2
:1043E00000A002EB8A0ABAF902A0BAEB060901D4CE
:1043F000CA4601E0C9F1000A0AFB0CFA9AFBFEFA70
:10440000AA440FFA8AFAD3F800B002EB8B0BABF890
:1044100000A028E0F80A0020040B0020AC4F0A0896
:10442000000B0020100B0020AC9F0A086CC60A0885
:10443000D3F800A002EB8A0ABAF902A0BAEB060987
:1044400001D4CA4601E0C9F1000A0AFB0CFA9AFB42
:10445000FEFAA5EB0A0A0FFA8AFAD3F800B002EBCB
:104460008B0BABF800A01B1D08F10108F0459BDB8E
:10447000641C8C42FFF611AFBDE8F88FFE4880ED5A
:104480003A0A70472DE9F047DFF8EC9300262DED4E
:104490000A8B0446B0EE408AF0EE608A88463546C4
:1044A0003746D9F8AC0084F0EAFE53EC182B84F0C0
:1044B00057FF6FD3D9F8B00084F0E1FE53EC182B0E
:1044C00085F088F8F5D3B4F90000B4F90610401A65
:1044D00084F0D5FE53EC182B84F042FF00D2012665
:1044E000B4F90E00B4F91410401A84F0C8FE53EC6D
:1044F000182B84F035FF00D2761CB4F91C00B4F9F7
:104500002210401A84F0BBFE53EC182B84F028FFD5
:1045100000D2761C9FEDD90B012E3BDC53EC102B07
:1045200051EC180B84F058FF8946064649EC180BED
:10453000B4F90000B4F90610401A84F0A0FE53EC60
:10454000182B85F047F800D20125B4F90E00B4F914
:10455000141049EC186B401A84F091FE53EC182BA0
:1045600085F038F800D26D1CB4F91C00B4F92210A3
:1045700049EC186B401A84F082FE53EC182B85F03E
:1045800029F800D26D1C002D05DD0220BDEC0A8B40
:10459000BDE8F08765E000269FEDBACB06EB460943
:1045A00004EB8905B5F90A0084F069FE98ED048BE7
:1045B00053EC182B85F01CF941EC190BB5F90400EC
:1045C00084F05DFE53EC182B85F012F953EC192B97
:1045D00084F002FF41EC190BB5F9080084F04FFE9E
:1045E00098ED028B53EC182B85F002F941EC1A0B75
:1045F000B5F9020084F043FE53EC182B85F0F8F86F
:1046000053EC1A2B84F0E8FE41EC1A0BB5F90600C6
:1046100084F035FE98ED008B53EC182B85F0E8F80C
:1046200041EC1B0B34F9290084F029FE53EC182BC4
:1046300085F0DEF853EC1B2B84F0CEFE53EC1A2BE6
:1046400084F070FB53EC192B84F06CFB53EC1C2BA7
:1046500084F086FE00D27F1C761C032E9EDB022F88
:1046600001DA012092E7002090E788490A684B6848
:10467000D00180EAD20080EA031048608B685203C0
:1046800080EAC30382EA5312520282EAD0208B608E
:104690000860704710B52DED048BF0EE408AFFF7EF
:1046A000E4FF00EE100AB8EE400ADFED790A20EED2
:1046B000200A9FED789A20EE090A27F0DDFCB0EE83
:1046C000408AFFF7D2FF00EE100AB8EE400A20EE53
:1046D000090AB5EEC00AF1EE10FA01D1B7EE000AF0
:1046E00010EE100A85F06EF941EC100B27F08CFFEC
:1046F0009FED691B51EC100B53EC112B84F06CFEF9
:1047000084F0DEFA00EE100A29F0E7FC20EE280A19
:1047100020EE080ABDEC048B10BD2DE9F0410546E2
:104720002DED048BB0EE608AF0EE408A0F4618EE55
:10473000100A85F047F997ED301B53EC112B84F0EC
:104740004BFE41EC190B18EE900A85F03BF995ED04
:10475000301B53EC112B84F03FFE53EC192B84F0EB
:10476000E1FA0024C5E9300118EE100A85F02AF9B3
:1047700007EBC40898ED001B53EC112B84F02CFEC2
:1047800041EC190B18EE900A85F01CF905EBC406F4
:1047900096ED001B53EC112B84F01EFE53EC192BED
:1047A00084F0C0FAC6E9000118EE100A85F00AF993
:1047B00098ED241B53EC112B84F00EFE41EC190BE9
:1047C00018EE900A85F0FEF896ED241B53EC112BA1
:1047D00084F002FE53EC192B84F0A4FA641CC6E9A1
:1047E0002401062CC0DB002418EE100A85F0EAF83C
:1047F00041EC100B07EBC40090ED121B51EC100BB9
:1048000053EC112B84F0E8FD41EC190B18EE900AE3
:1048100085F0D8F805EBC40696ED121B53EC112B6E
:1048200084F0DAFD53EC192B84F07CFA641CC6E9A1
:104830001201092CD8DB002418EE100A85F0C2F80A
:1048400041EC100B07EBC40090ED0C1B51EC100B6E
:1048500053EC112B84F0C0FD41EC190B18EE900ABB
:1048600085F0B0F805EBC40696ED0C1B53EC112B4C
:1048700084F0B2FD14E0000080DC022000000000A3
:10488000000004400000000000000000280B002091
:10489000DB0FC9400000802F00000000000000C0B6
:1048A00053EC192B84F03EFA641CC6E90C01032C6E
:1048B000C2DBBDEC048BBDE8F0812DE9F04F04466E
:1048C0002DED068B83B00D46086884F0D8FC41ECD2
:1048D0001A0B686884F0D3FC41EC190BA86884F0CB
:1048E000CEFC41EC180B94ED300B9FEDFE1B51EC10
:1048F000100B53EC112B84F015FAC4E9300194ED40
:104900000C0B53EC1A2B51EC100B84F00BFAC4E98E
:104910000C0194ED0E0B53EC192B51EC100B84F0A1
:1049200001FAC4E90E0194ED100B53EC182B51EC75
:10493000100B84F0F7F9C4E9100153EC1A2B51EC79
:104940001A0B84F049FD029194ED001B064653ECCE
:10495000112B84F0E7F9C4E9000153EC192B51EC59
:104960001A0B84F039FD894649EC100B94ED021BBB
:10497000054653EC112B51EC100B84F0D3F9C4E92C
:10498000020153EC182B51EC1A0B84F025FD8B46D9
:104990004BEC100B94ED041B804653EC112B51ECA7
:1049A000100B84F0BFF9C4E9040153EC192B51EC4E
:1049B000190B84F011FD019194ED061B074653EC91
:1049C000112B84F0AFF9C4E9060153EC182B51EC1C
:1049D000190B84F001FD009194ED081B824653EC05
:1049E000112B84F09FF9C4E9080153EC182B51EC0A
:1049F000180B84F0F1FC94ED0A1B53EC112B84F09E
:104A000091F9C4E90A01029953EC1A2B41EC106B9D
:104A100051EC100B84F0E0FC94ED121B53EC112BC5
:104A200084F080F949EC105BC4E9120153EC192BB6
:104A300051EC100B84F0D0FC94ED141B53EC112BB3
:104A400084F070F94BEC108BC4E9140153EC182B73
:104A500051EC100B84F0C0FC94ED161B53EC112BA1
:104A600084F060F949EC105BC4E9160153EC1A2B91
:104A700051EC100B84F0B0FC94ED181B53EC112B8F
:104A800084F050F9C4E91801019953EC192B41EC59
:104A9000107B51EC100B84F09FFC94ED1A1B53EC2F
:104AA000112B84F03FF9C4E91A010099554641ECF5
:104AB00010AB0E4653EC182B51EC100B84F08CFC11
:104AC00094ED1C1B53EC112B84F02CF9C4E91C0150
:104AD00053EC1A2B51EC180B84F07EFC53EC1A2B80
:104AE00084F07AFC94ED1E1B53EC112B84F01AF920
:104AF00046EC105BC4E91E0153EC192B51EC100B72
:104B000084F06AFC94ED201B53EC112B84F00AF91D
:104B1000C4E9200153EC182B51EC180B84F05CFC19
:104B2000894649EC100B074653EC182B51EC100B3F
:104B300084F052FC94ED221B53EC112B84F0F2F81C
:104B4000C4E9220153EC1A2B51EC1A0B84F044FCFB
:104B5000884648EC100B054653EC1A2B51EC100B11
:104B600084F03AFC53EC1A2B84F036FC94ED241BB1
:104B700053EC112B84F0D6F8C4E9240153EC192B23
:104B800051EC190B84F028FC8A464AEC100B0646BF
:104B900053EC192B51EC100B84F01EFC53EC192B29
:104BA00084F01AFC94ED261B53EC112B84F0BAF818
:104BB00049EC107BC4E9260153EC182B51EC100B87
:104BC00084F00AFC53EC182B84F006FC94ED281BAF
:104BD00053EC112B84F0A6F848EC105BC4E92801D3
:104BE00053EC192B51EC100B84F0F6FB53EC192B02
:104BF00084F0F2FB94ED2A1B53EC112B84F092F815
:104C000048EC105BC4E92A0153EC182B51EC100B53
:104C100084F0E2FB53EC182B84F0DEFB94ED2C1BAC
:104C200053EC112B84F07EF84AEC106BC4E92C0194
:104C300053EC182B51EC100B84F0CEFB53EC182BDB
:104C400084F0CAFB94ED2E1B53EC112B84F06AF810
:104C5000C4E92E0103B0BDEC068BBDE8F08F2DE951
:104C6000F04F93462DED108B0D46044693B090ED1A
:104C70000CEB53EC1E2B51EC1E0B84F0ADFB94EDB2
:104C8000000B41EC190B8DED080B94ED308B53ECC0
:104C9000102B51EC180B84F09FFB53EC192B84F074
:104CA000A7FD94ED0EDB41EC1F0B53EC1D2B51ECDB
:104CB0001D0B84F091FB94ED060B41EC190B8DED6F
:104CC000060B53EC102B51EC180B84F085FB53ECC6
:104CD000192B84F08DFD41EC100B8DED040B94ED40
:104CE00010CB03E0000000000000F03F53EC1C2B51
:104CF00051EC1C0B84F070FB94ED0A0B41EC190B8A
:104D00008DED020B53EC102B51EC180B84F064FB6F
:104D100053EC192B84F06CFD41EC110B53EC1D2B63
:104D20008DED001B51EC1E0B84F056FB94ED020B35
:104D300041EC190B53EC102B51EC180B84F04CFB8D
:104D400053EC192B84F054FD41EC1B0B53EC1C2B42
:104D500051EC1E0B84F040FB94ED040B41EC190B5D
:104D600053EC102B51EC180B84F036FB53EC192B41
:104D700084F03EFD41EC1A0B53EC1C2B51EC1D0B47
:104D800084F02AFB94ED080B41EC190B53EC102B2B
:104D900051EC180B84F020FB53EC192B84F028FD08
:104DA0009DED020B41EC190B53EC102B51EC1E0B3B
:104DB00084F012FB41EC110B51EC180B8DED101B24
:104DC00094ED160B53EC102B84F006FB41EC110B09
:104DD00051EC1E0B8DED0E1B9DED060B53EC102BB5
:104DE00084F0FAFA41EC110B51EC180B8DED0C1B11
:104DF00094ED140B53EC102B84F0EEFA41EC110BF4
:104E000051EC1E0B8DED0A1B9DED080B53EC102B86
:104E100084F0E2FA94ED120B41EC1E0B53EC102BD4
:104E200051EC180B84F0D8FA53EC1E2B84F0E0FC04
:104E30009DED0A1B53EC112B83F074FF9DED0C1BB1
:104E400053EC112B84F0D4FC9DED0E1B53EC112B75
:104E500083F068FF9DED101B53EC112B84F0C8FC10
:104E60009FEDFE1B53EC112B84F0B6FA9DED020B67
:104E700041EC1E0B53EC102B51EC1D0B84F0ACFAE3
:104E800041EC110B51EC180B8DED101B94ED1C0B2C
:104E900053EC102B84F0A0FA41EC110B51EC1D0BDC
:104EA0008DED0E1B9DED060B53EC102B84F094FA48
:104EB00041EC110B51EC180B8DED0C1B94ED1A0B02
:104EC00053EC102B84F088FA41EC110B51EC1D0BC4
:104ED0008DED0A1B9DED080B53EC102B84F07CFA32
:104EE00094ED180B41EC1D0B53EC102B51EC180BEF
:104EF00084F072FA53EC1D2B84F07AFC9DED0A1BB2
:104F000053EC112B83F00EFF9DED0C1B53EC112B7A
:104F100084F06EFC9DED0E1B53EC112B83F002FF11
:104F20009DED101B53EC112B84F062FC9FEDCB1B0D
:104F300053EC112B84F050FA9DED020B41EC1D0B4C
:104F400053EC102B51EC1C0B84F046FA41EC110B86
:104F500051EC180B8DED021B94ED220B53EC102B32
:104F600084F03AFA41EC110B51EC1C0B8DED0A1B4D
:104F70009DED060B53EC102B84F02EFA41EC110B37
:104F800051EC180B8DED0C1B94ED200B53EC102BFA
:104F900084F022FA41EC110B51EC1C0B8DED061B39
:104FA0009DED080B53EC102B84F016FA94ED1E0BBC
:104FB00041EC1C0B53EC102B51EC180B84F00CFA49
:104FC00053EC1C2B84F014FC9DED061B53EC112BB1
:104FD00083F0A8FE9DED0C1B53EC112B84F008FC14
:104FE0009DED0A1B53EC112B83F09CFE9DED021BE3
:104FF00053EC112B84F0FCFB9FED981B53EC112B11
:1050000084F0EAF99DED040B41EC180B53EC102BE6
:1050100051EC1F0B84F0E0F910919DED001B8246CE
:1050200053EC112B84F0D8F941EC110B53EC192BF4
:105030008DED0A1B51EC1F0B84F0CEF953EC192BAC
:1050400084F0CAF941EC110B53EC1A2B8DED081BBF
:105050009DED040B51EC100B84F0BEF9814653EC2E
:105060001A2B119184F0B8F941EC110B8DED061B50
:105070009FED7C0B51EC1B0B53EC102B84F0ACF927
:1050800053EC1A2B84F0A8F953EC192B84F0A4F9F3
:105090009DED001B41EC1C0B53EC1B2B51EC110B39
:1050A00084F09AF9074653EC1B2B029184F094F993
:1050B00053EC1C2B84F09CFB9DED061B53EC112B39
:1050C00083F030FE9DED081B53EC112B83F02AFE7C
:1050D0009DED0A1B53EC112B84F08AFB41EC1C0B59
:1050E0009FED620B53EC102B84F030F87DD053EC25
:1050F000192B51EC1B0B84F06FF953EC182B84F037
:105100006BF941EC110B53EC1D2B8DED0E1B02992D
:1051100041EC107B51EC100B84F05EF941EC110B6B
:105120008DED0C1B9DED000B53EC102B9DED040B36
:1051300051EC100B84F050F953EC1E2B84F04CF919
:1051400041EC110B53EC192B8DED081B51EC190B95
:1051500084F042F953EC1E2B84F03EF941EC110B24
:1051600053EC1D2B8DED0A1B51EC190B84F034F917
:1051700041EC110B53EC182B8DED061B9DED040B30
:1051800051EC100B84F028F99DED061B53EC112B0C
:1051900084F02EFB53EC1A2B84F01EF99DED0A1BB4
:1051A00053EC112B83F0BEFD9DED081B53EC112B2E
:1051B00084F01EFB9DED0C1B53EC112B83F0B2FD14
:1051C0009DED0E1B53EC112B84F012FB41EC100BE8
:1051D00053EC1A2B8DED060B51EC1B0B84F0FCF8F5
:1051E0008846064648EC100B00E065E153EC182BAE
:1051F00051EC100B84F0F0F841EC110B53EC1E2B2A
:105200008DED041B029941EC107B51EC100B84F0E6
:10521000E3F841EC110B51EC1F0B8DED021B9DEDE2
:10522000000B53EC102B84F0D7F853EC1D2B84F0BB
:10523000D3F841EC110B53EC1A2B8DED081B51ECFC
:105240001A0B84F0C9F853EC1D2B84F0C5F841EC1F
:10525000110B53EC1E2B8DED001B0BE0000000002A
:105260000000E03F000000000000004000000000DF
:105270000000000051EC1A0B84F0AEF841EC1A0B60
:1052800053EC182B51EC1F0B84F0A6F853EC1A2B9F
:1052900084F0AEFA53EC192B84F09EF89DED001BC0
:1052A00053EC112B83F03EFD9DED081B53EC112BAD
:1052B00084F09EFA9DED021B53EC112B83F032FD1E
:1052C0009DED041B53EC112B84F092FA41EC100B72
:1052D00053EC1D2B8DED040B48EC106B51EC100BB7
:1052E00084F07AF841EC110B53EC1E2B8DED001B72
:1052F000119941EC109B51EC100B84F06DF841ECCE
:10530000110B53EC182B8DED021B109941EC10ABD7
:1053100051EC100B84F060F841EC1A0B53EC1B2B92
:1053200051EC1B0B84F058F853EC182B84F054F814
:1053300041EC180B53EC1E2B51EC1B0B84F04CF87A
:1053400041EC1B0B53EC1D2B51EC1F0B84F044F86C
:1053500053EC1B2B84F04CFA53EC192B84F03CF8E3
:1053600053EC182B83F0DEFC53EC1A2B84F040FA3C
:105370009DED021B53EC112B83F0D4FC9DED001B23
:1053800053EC112B84F034FA9DED060B41EC190B14
:1053900053EC1C2B51EC100B83F080FD41EC180BEF
:1053A00053EC1C2B85ED008B9DED040B51EC100B89
:1053B00083F074FD41EC1A0B53EC1C2B85ED02AB12
:1053C00051EC190B83F06AFD41EC190B85ED049B40
:1053D00094ED100B53EC102B83F0FEFF94ED0E0BAD
:1053E00041EC1B0B53EC102B51EC1A0B83F0F4FF28
:1053F00094ED0C0B41EC1C0B53EC102B51EC180BE7
:1054000083F0EAFF53EC1C2B83F08CFC53EC1B2B3A
:1054100083F088FC1FED6D1B53EC112B83F0DCFF38
:1054200094ED061B94ED000B41EC1B0B53EC112B80
:1054300051EC100B83F076FC94ED0A1B53EC112B0E
:1054400083F070FC53EC1B2B84F0D2F994ED301BED
:1054500053EC112B83F022FD41EC1B0B53EC192B69
:1054600051EC190B83F0B8FF41EC190B53EC1A2BDC
:1054700051EC1A0B83F0B0FF41EC1A0B53EC182BD4
:1054800051EC180B83F0A8FF53EC1A2B83F04AFC65
:1054900053EC192B83F046FC53EC1B2B83F042FC9E
:1054A00041EC100B28F0DCFD8BED000B012013B05C
:1054B000BDEC108BBDE8F08F0020F8E72DE9F04F30
:1054C0000D462DED108B04468BB091ED00AB53ECE7
:1054D0001A2B51EC1A0B83F07FFF94ED0CCB53EC9D
:1054E0001C2B83F079FF53EC1C2B83F075FF94ED9C
:1054F00030FB41EC180B53EC1A2B51EC1F0B83F0D3
:105500006BFF8B464BEC100B074653EC1A2B51EC00
:10551000100B83F061FF94ED00EB53EC1E2B83F036
:105520005BFF53EC182B84F063F941EC190B53EC3F
:105530001E2B51EC1A0B83F04FFF53EC1C2B83F006
:105540004BFF4BEC107B94ED121B41EC180B53EC12
:10555000112B51EC100B83F03FFF53EC192B84F00F
:105560006FF853EC182B83F0DDFB41EC1B0B1FEDA8
:10557000C30B51EC1A0B53EC102B83F02DFF894613
:1055800049EC100B95ED029B064653EC192B51ECA0
:10559000100B83F021FF53EC1C2B83F01DFF94EDC7
:1055A0000EDB53EC1D2B83F017FF41EC180B1FEDA6
:1055B000D30B51EC1F0B53EC102B83F00DFF8246E5
:1055C00053EC1A2B069183F007FF53EC192B83F051
:1055D00003FF94ED021B53EC112B83F0FDFE53EC03
:1055E0001B2B83F09FFB53EC182B84F001F941EC4B
:1055F000180B53EC1C2B51EC1A0B83F0EDFE0491AD
:1056000094ED06BB804653EC1B2B83F0E5FE41EC8A
:10561000110B4BEC107B8DED001B94ED141B51EC2A
:10562000100B53EC112B83F0D7FE53EC182B84F0A6
:1056300007F89DED001B53EC112B83F073FB41EC3D
:10564000110B49EC106B8DED001B95ED048B51ECAB
:10565000100B53EC182B83F0BFFE53EC1C2B83F084
:10566000BBFE94ED10CB53EC1C2B83F0B5FE41EC4C
:10567000110B53EC1A2B8DED021B069941EC10AB6C
:1056800051EC100B83F0A8FE53EC182B83F0A4FE12
:1056900094ED041B53EC112B83F09EFE9DED001B3B
:1056A00053EC112B83F03EFB9DED021B53EC112BB1
:1056B00084F09EF841EC100B8DED000B049994EDF5
:1056C0000AAB41EC108B53EC1A2B51EC100B83F00E
:1056D00083FE41EC110B4BEC107B8DED021B94ED26
:1056E000161B51EC100B53EC112B83F075FE9DED46
:1056F000001B53EC112B83F0A3FF9DED021B53EC19
:10570000112B83F00FFB41EC110B8DED001B9FED76
:10571000FE0B51EC1E0B53EC102B83F05DFE53EC93
:105720001E2B83F059FE41EC110B8DED021B9FEDFA
:10573000F60B51EC1F0B53EC102B83F04DFE059133
:1057400094ED241B814653EC112B83F045FE9DED17
:10575000001B53EC112B83F0E5FA9DED021B53EC7B
:10576000112B84F045F841EC110B53EC1E2B8DED01
:10577000001B51EC190B83F02FFE53EC1D2B83F013
:105780002BFE41EC110B53EC192B8DED081B51EC4A
:105790001F0B83F021FE039194ED181B064653EC7A
:1057A000112B83F019FE9DED001B53EC112B83F0A0
:1057B00047FF9DED081B53EC112B83F0B3FA41EC2E
:1057C000110B8DED001B9FEDD20B51EC1E0B53EC1A
:1057D000102B83F001FE8B464BEC100B054653EC6F
:1057E0001B2B51EC100B83F0F7FD41EC110B8DEDF1
:1057F000081B9FEDC70B51EC1F0B53EC102B83F0D4
:10580000EBFD049194ED2A1B804653EC112B83F0A1
:10581000E3FD9DED001B53EC112B83F083FA9DED0E
:10582000081B53EC112B83F0E3FF41EC110B53ECFD
:105830001E2B8DED001B51EC180B83F0CDFD53ECAE
:105840001C2B83F0C9FD41EC1E0B53EC182B51ECC3
:105850001F0B83F0C1FD029194ED1E1B074653EC14
:10586000112B83F0B9FD9DED001B53EC112B83F040
:10587000E7FE53EC1E2B83F055FA4BEC105B41EC2A
:105880001F0B53EC1A2B51EC100B83F0A5FD41ECD0
:105890001E0B049994ED2C1B41EC108B53EC112B37
:1058A00051EC100B83F098FD53EC1F2B83F03AFA68
:1058B00053EC1E2B83F09CFF41EC1F0B53EC192B78
:1058C00051EC190B83F088FD53EC1D2B83F084FD04
:1058D00053EC1D2B83F080FD41EC1E0B039953EC20
:1058E000192B41EC106B51EC100B83F075FD53EC50
:1058F0001B2B83F071FD53EC1F2B83F013FA53EC39
:105900001E2B83F075FF41EC1F0B53EC1B2B51EC4E
:10591000190B83F061FD53EC1D2B83F05DFD41EC11
:105920001E0B039994ED1A1B41EC106B53EC112BD9
:1059300051EC100B83F050FD53EC1F2B83F080FED5
:1059400053EC1E2B83F0EEF941EC1F0B9FED720B15
:1059500051EC190B53EC102B83F03EFD53EC182B3C
:1059600083F03AFD53EC1D2B83F036FD53EC1C2BDA
:1059700083F032FD41EC1E0B069953EC192B41ECE0
:1059800010AB51EC100B83F027FD53EC182B83F078
:1059900023FD94ED081B53EC112B83F01DFD53ECFC
:1059A0001F2B83F0BFF953EC1E2B83F021FF41EC3A
:1059B0001E0B53EC1D2B51EC190B83F00DFD53EC1A
:1059C0001A2B83F009FD41EC190B039994ED1C1B74
:1059D00041EC106B53EC112B51EC100B83F0FCFCE1
:1059E00053EC1E2B83F02CFE53EC192B83F09AF909
:1059F00041EC1D0B9FED44EB51EC1B0B53EC1E2BAC
:105A000083F0EAFC53EC1B2B83F0E6FC41EC190B12
:105A1000059994ED261B41EC109B53EC112B51EC96
:105A2000100B83F0D9FC53EC1D2B83F07BF953EC66
:105A3000192B83F0DDFE41EC1D0B53EC1B2B51ECBD
:105A4000180B83F0C9FC53EC1C2B83F0C5FC41EC14
:105A5000190B029994ED201B41EC107B53EC112B98
:105A600051EC100B83F0B8FC53EC1D2B83F0E8FDD8
:105A700053EC192B83F056F99FED250B41EC190BD4
:105A800053EC102B51EC1B0B83F0A6FC53EC1A2BA0
:105A900083F0A2FC41EC1B0B049994ED2E1B41EC0E
:105AA000108B53EC112B51EC100B83F095FC53EC45
:105AB000192B83F037F953EC1B2B83F099FE41EC43
:105AC0001B0B53EC182B51EC180B83F085FC53EC9B
:105AD0001C2B83F081FC53EC1C2B83F07DFC41ECF0
